{
  "contractName": "FIRManagement",
  "abi": [
    {
      "inputs": [],
      "stateMutability": "nonpayable",
      "type": "constructor"
    },
    {
      "anonymous": false,
      "inputs": [
        {
          "indexed": false,
          "internalType": "uint256",
          "name": "firId",
          "type": "uint256"
        },
        {
          "indexed": false,
          "internalType": "address",
          "name": "user",
          "type": "address"
        }
      ],
      "name": "FIRCreated",
      "type": "event"
    },
    {
      "anonymous": false,
      "inputs": [
        {
          "indexed": false,
          "internalType": "uint256",
          "name": "firId",
          "type": "uint256"
        },
        {
          "indexed": false,
          "internalType": "enum FIRManagement.FIRStatus",
          "name": "status",
          "type": "uint8"
        },
        {
          "indexed": false,
          "internalType": "string",
          "name": "message",
          "type": "string"
        }
      ],
      "name": "FIRStatusUpdated",
      "type": "event"
    },
    {
      "inputs": [],
      "name": "firCounter",
      "outputs": [
        {
          "internalType": "uint256",
          "name": "",
          "type": "uint256"
        }
      ],
      "stateMutability": "view",
      "type": "function",
      "constant": true
    },
    {
      "inputs": [
        {
          "internalType": "uint256",
          "name": "",
          "type": "uint256"
        }
      ],
      "name": "firs",
      "outputs": [
        {
          "internalType": "uint256",
          "name": "id",
          "type": "uint256"
        },
        {
          "internalType": "address",
          "name": "user",
          "type": "address"
        },
        {
          "internalType": "string",
          "name": "details",
          "type": "string"
        },
        {
          "internalType": "enum FIRManagement.FIRStatus",
          "name": "status",
          "type": "uint8"
        },
        {
          "internalType": "string",
          "name": "rejectionMessage",
          "type": "string"
        },
        {
          "internalType": "string",
          "name": "investigationDetails",
          "type": "string"
        },
        {
          "internalType": "string",
          "name": "courtMessage",
          "type": "string"
        }
      ],
      "stateMutability": "view",
      "type": "function",
      "constant": true
    },
    {
      "inputs": [
        {
          "internalType": "address",
          "name": "",
          "type": "address"
        }
      ],
      "name": "roles",
      "outputs": [
        {
          "internalType": "string",
          "name": "",
          "type": "string"
        }
      ],
      "stateMutability": "view",
      "type": "function",
      "constant": true
    },
    {
      "inputs": [
        {
          "internalType": "address",
          "name": "_address",
          "type": "address"
        },
        {
          "internalType": "string",
          "name": "_role",
          "type": "string"
        }
      ],
      "name": "assignRole",
      "outputs": [],
      "stateMutability": "nonpayable",
      "type": "function"
    },
    {
      "inputs": [
        {
          "internalType": "string",
          "name": "_details",
          "type": "string"
        }
      ],
      "name": "createFIR",
      "outputs": [],
      "stateMutability": "nonpayable",
      "type": "function"
    },
    {
      "inputs": [
        {
          "internalType": "uint256",
          "name": "_firId",
          "type": "uint256"
        },
        {
          "internalType": "bool",
          "name": "_isApproved",
          "type": "bool"
        },
        {
          "internalType": "string",
          "name": "_message",
          "type": "string"
        }
      ],
      "name": "updateFIRStatus",
      "outputs": [],
      "stateMutability": "nonpayable",
      "type": "function"
    },
    {
      "inputs": [
        {
          "internalType": "uint256",
          "name": "_firId",
          "type": "uint256"
        },
        {
          "internalType": "string",
          "name": "_details",
          "type": "string"
        }
      ],
      "name": "markAsInvestigated",
      "outputs": [],
      "stateMutability": "nonpayable",
      "type": "function"
    },
    {
      "inputs": [
        {
          "internalType": "uint256",
          "name": "_firId",
          "type": "uint256"
        },
        {
          "internalType": "string",
          "name": "_message",
          "type": "string"
        }
      ],
      "name": "closeFIR",
      "outputs": [],
      "stateMutability": "nonpayable",
      "type": "function"
    },
    {
      "inputs": [
        {
          "internalType": "uint256",
          "name": "_firId",
          "type": "uint256"
        }
      ],
      "name": "viewFIR",
      "outputs": [
        {
          "components": [
            {
              "internalType": "uint256",
              "name": "id",
              "type": "uint256"
            },
            {
              "internalType": "address",
              "name": "user",
              "type": "address"
            },
            {
              "internalType": "string",
              "name": "details",
              "type": "string"
            },
            {
              "internalType": "enum FIRManagement.FIRStatus",
              "name": "status",
              "type": "uint8"
            },
            {
              "internalType": "string",
              "name": "rejectionMessage",
              "type": "string"
            },
            {
              "internalType": "string",
              "name": "investigationDetails",
              "type": "string"
            },
            {
              "internalType": "string",
              "name": "courtMessage",
              "type": "string"
            }
          ],
          "internalType": "struct FIRManagement.FIR",
          "name": "",
          "type": "tuple"
        }
      ],
      "stateMutability": "view",
      "type": "function",
      "constant": true
    },
    {
      "inputs": [],
      "name": "viewAllFIRs",
      "outputs": [
        {
          "components": [
            {
              "internalType": "uint256",
              "name": "id",
              "type": "uint256"
            },
            {
              "internalType": "address",
              "name": "user",
              "type": "address"
            },
            {
              "internalType": "string",
              "name": "details",
              "type": "string"
            },
            {
              "internalType": "enum FIRManagement.FIRStatus",
              "name": "status",
              "type": "uint8"
            },
            {
              "internalType": "string",
              "name": "rejectionMessage",
              "type": "string"
            },
            {
              "internalType": "string",
              "name": "investigationDetails",
              "type": "string"
            },
            {
              "internalType": "string",
              "name": "courtMessage",
              "type": "string"
            }
          ],
          "internalType": "struct FIRManagement.FIR[]",
          "name": "",
          "type": "tuple[]"
        }
      ],
      "stateMutability": "view",
      "type": "function",
      "constant": true
    },
    {
      "inputs": [],
      "name": "viewAllFIRInvestigator",
      "outputs": [
        {
          "components": [
            {
              "internalType": "uint256",
              "name": "id",
              "type": "uint256"
            },
            {
              "internalType": "address",
              "name": "user",
              "type": "address"
            },
            {
              "internalType": "string",
              "name": "details",
              "type": "string"
            },
            {
              "internalType": "enum FIRManagement.FIRStatus",
              "name": "status",
              "type": "uint8"
            },
            {
              "internalType": "string",
              "name": "rejectionMessage",
              "type": "string"
            },
            {
              "internalType": "string",
              "name": "investigationDetails",
              "type": "string"
            },
            {
              "internalType": "string",
              "name": "courtMessage",
              "type": "string"
            }
          ],
          "internalType": "struct FIRManagement.FIR[]",
          "name": "",
          "type": "tuple[]"
        }
      ],
      "stateMutability": "view",
      "type": "function",
      "constant": true
    },
    {
      "inputs": [],
      "name": "viewAllFIRCourt",
      "outputs": [
        {
          "components": [
            {
              "internalType": "uint256",
              "name": "id",
              "type": "uint256"
            },
            {
              "internalType": "address",
              "name": "user",
              "type": "address"
            },
            {
              "internalType": "string",
              "name": "details",
              "type": "string"
            },
            {
              "internalType": "enum FIRManagement.FIRStatus",
              "name": "status",
              "type": "uint8"
            },
            {
              "internalType": "string",
              "name": "rejectionMessage",
              "type": "string"
            },
            {
              "internalType": "string",
              "name": "investigationDetails",
              "type": "string"
            },
            {
              "internalType": "string",
              "name": "courtMessage",
              "type": "string"
            }
          ],
          "internalType": "struct FIRManagement.FIR[]",
          "name": "",
          "type": "tuple[]"
        }
      ],
      "stateMutability": "view",
      "type": "function",
      "constant": true
    }
  ],
  "bytecode": "0x60806040523480156200001157600080fd5b506040518060400160405280600581526020017f41646d696e000000000000000000000000000000000000000000000000000000815250600260003373ffffffffffffffffffffffffffffffffffffffff1673ffffffffffffffffffffffffffffffffffffffff168152602001908152602001600020908162000095919062000316565b50620003fd565b600081519050919050565b7f4e487b7100000000000000000000000000000000000000000000000000000000600052604160045260246000fd5b7f4e487b7100000000000000000000000000000000000000000000000000000000600052602260045260246000fd5b600060028204905060018216806200011e57607f821691505b602082108103620001345762000133620000d6565b5b50919050565b60008190508160005260206000209050919050565b60006020601f8301049050919050565b600082821b905092915050565b6000600883026200019e7fffffffffffffffffffffffffffffffffffffffffffffffffffffffffffffffff826200015f565b620001aa86836200015f565b95508019841693508086168417925050509392505050565b6000819050919050565b6000819050919050565b6000620001f7620001f1620001eb84620001c2565b620001cc565b620001c2565b9050919050565b6000819050919050565b6200021383620001d6565b6200022b6200022282620001fe565b8484546200016c565b825550505050565b600090565b6200024262000233565b6200024f81848462000208565b505050565b5b8181101562000277576200026b60008262000238565b60018101905062000255565b5050565b601f821115620002c65762000290816200013a565b6200029b846200014f565b81016020851015620002ab578190505b620002c3620002ba856200014f565b83018262000254565b50505b505050565b600082821c905092915050565b6000620002eb60001984600802620002cb565b1980831691505092915050565b6000620003068383620002d8565b9150826002028217905092915050565b62000321826200009c565b67ffffffffffffffff8111156200033d576200033c620000a7565b5b62000349825462000105565b620003568282856200027b565b600060209050601f8311600181146200038e576000841562000379578287015190505b620003858582620002f8565b865550620003f5565b601f1984166200039e866200013a565b60005b82811015620003c857848901518255600182019150602085019450602081019050620003a1565b86831015620003e85784890151620003e4601f891682620002d8565b8355505b6001600288020188555050505b505050505050565b6134dd806200040d6000396000f3fe608060405234801561001057600080fd5b50600436106100b45760003560e01c8063a4de172d11610071578063a4de172d14610177578063ae3647d8146101ad578063b7dfcbee146101cb578063da5ccacf146101e7578063e25f0f2314610217578063e31fb97514610235576100b4565b80634e883118146100b9578063533c0a16146100d557806382a83e95146100f157806392fc5ae81461010f5780639548ec7c1461012b5780639937464214610147575b600080fd5b6100d360048036038101906100ce919061266f565b610253565b005b6100ef60048036038101906100ea91906126de565b6104af565b005b6100f96106d1565b60405161010691906129f3565b60405180910390f35b610129600480360381019061012491906126de565b610b8d565b005b61014560048036038101906101409190612a15565b610daf565b005b610161600480360381019061015c9190612a8a565b611082565b60405161016e9190612b01565b60405180910390f35b610191600480360381019061018c9190612b23565b611122565b6040516101a49796959493929190612b7d565b60405180910390f35b6101b56113b1565b6040516101c29190612c08565b60405180910390f35b6101e560048036038101906101e09190612c23565b6113b7565b005b61020160048036038101906101fc9190612b23565b61150b565b60405161020e9190612d30565b60405180910390f35b61021f611926565b60405161022c91906129f3565b60405180910390f35b61023d611eb4565b60405161024a91906129f3565b60405180910390f35b6040518060400160405280600681526020017f506f6c69636500000000000000000000000000000000000000000000000000008152508060405160200161029a9190612d8e565b60405160208183030381529060405280519060200120600260003373ffffffffffffffffffffffffffffffffffffffff1673ffffffffffffffffffffffffffffffffffffffff1681526020019081526020016000206040516020016102ff9190612e9d565b6040516020818303038152906040528051906020012014610355576040517f08c379a000000000000000000000000000000000000000000000000000000000815260040161034c90612f00565b60405180910390fd5b6000600160008681526020019081526020016000209050600060048111156103805761037f612835565b5b8160030160009054906101000a900460ff1660048111156103a4576103a3612835565b5b146103e4576040517f08c379a00000000000000000000000000000000000000000000000000000000081526004016103db90612f6c565b60405180910390fd5b831561041c5760028160030160006101000a81548160ff0219169083600481111561041257610411612835565b5b021790555061045c565b60018160030160006101000a81548160ff0219169083600481111561044457610443612835565b5b02179055508281600401908161045a9190613123565b505b7fb8e5bd9804c1f72a43fe7ef9ddff9eae7f0dc675a6b9b6e74da1b20c8d7c179a858260030160009054906101000a900460ff16856040516104a0939291906131f5565b60405180910390a15050505050565b6040518060400160405280600581526020017f436f757274000000000000000000000000000000000000000000000000000000815250806040516020016104f69190612d8e565b60405160208183030381529060405280519060200120600260003373ffffffffffffffffffffffffffffffffffffffff1673ffffffffffffffffffffffffffffffffffffffff16815260200190815260200160002060405160200161055b9190612e9d565b60405160208183030381529060405280519060200120146105b1576040517f08c379a00000000000000000000000000000000000000000000000000000000081526004016105a890612f00565b60405180910390fd5b6000600160008581526020019081526020016000209050600360048111156105dc576105db612835565b5b8160030160009054906101000a900460ff166004811115610600576105ff612835565b5b14610640576040517f08c379a00000000000000000000000000000000000000000000000000000000081526004016106379061327f565b60405180910390fd5b60048160030160006101000a81548160ff0219169083600481111561066857610667612835565b5b02179055508281600601908161067e9190613123565b507fb8e5bd9804c1f72a43fe7ef9ddff9eae7f0dc675a6b9b6e74da1b20c8d7c179a848260030160009054906101000a900460ff16856040516106c3939291906131f5565b60405180910390a150505050565b60606040518060400160405280600681526020017f506f6c69636500000000000000000000000000000000000000000000000000008152508060405160200161071a9190612d8e565b60405160208183030381529060405280519060200120600260003373ffffffffffffffffffffffffffffffffffffffff1673ffffffffffffffffffffffffffffffffffffffff16815260200190815260200160002060405160200161077f9190612e9d565b60405160208183030381529060405280519060200120146107d5576040517f08c379a00000000000000000000000000000000000000000000000000000000081526004016107cc90612f00565b60405180910390fd5b60008054905060008167ffffffffffffffff8111156107f7576107f6612544565b5b60405190808252806020026020018201604052801561083057816020015b61081d612442565b8152602001906001900390816108155790505b509050600080600190505b838111610b8257600160008281526020019081526020016000206040518060e0016040529081600082015481526020016001820160009054906101000a900473ffffffffffffffffffffffffffffffffffffffff1673ffffffffffffffffffffffffffffffffffffffff1673ffffffffffffffffffffffffffffffffffffffff1681526020016002820180546108d090612dd4565b80601f01602080910402602001604051908101604052809291908181526020018280546108fc90612dd4565b80156109495780601f1061091e57610100808354040283529160200191610949565b820191906000526020600020905b81548152906001019060200180831161092c57829003601f168201915b505050505081526020016003820160009054906101000a900460ff16600481111561097757610976612835565b5b600481111561098957610988612835565b5b815260200160048201805461099d90612dd4565b80601f01602080910402602001604051908101604052809291908181526020018280546109c990612dd4565b8015610a165780601f106109eb57610100808354040283529160200191610a16565b820191906000526020600020905b8154815290600101906020018083116109f957829003601f168201915b50505050508152602001600582018054610a2f90612dd4565b80601f0160208091040260200160405190810160405280929190818152602001828054610a5b90612dd4565b8015610aa85780601f10610a7d57610100808354040283529160200191610aa8565b820191906000526020600020905b815481529060010190602001808311610a8b57829003601f168201915b50505050508152602001600682018054610ac190612dd4565b80601f0160208091040260200160405190810160405280929190818152602001828054610aed90612dd4565b8015610b3a5780601f10610b0f57610100808354040283529160200191610b3a565b820191906000526020600020905b815481529060010190602001808311610b1d57829003601f168201915b505050505081525050838381518110610b5657610b5561329f565b5b60200260200101819052508180610b6c906132fd565b9250508080610b7a906132fd565b91505061083b565b508194505050505090565b6040518060400160405280600c81526020017f496e76657374696761746f72000000000000000000000000000000000000000081525080604051602001610bd49190612d8e565b60405160208183030381529060405280519060200120600260003373ffffffffffffffffffffffffffffffffffffffff1673ffffffffffffffffffffffffffffffffffffffff168152602001908152602001600020604051602001610c399190612e9d565b6040516020818303038152906040528051906020012014610c8f576040517f08c379a0000000000000000000000000000000000000000000000000000000008152600401610c8690612f00565b60405180910390fd5b600060016000858152602001908152602001600020905060026004811115610cba57610cb9612835565b5b8160030160009054906101000a900460ff166004811115610cde57610cdd612835565b5b14610d1e576040517f08c379a0000000000000000000000000000000000000000000000000000000008152600401610d1590613391565b60405180910390fd5b60038160030160006101000a81548160ff02191690836004811115610d4657610d45612835565b5b021790555082816005019081610d5c9190613123565b507fb8e5bd9804c1f72a43fe7ef9ddff9eae7f0dc675a6b9b6e74da1b20c8d7c179a848260030160009054906101000a900460ff1685604051610da1939291906131f5565b60405180910390a150505050565b6040518060400160405280600481526020017f557365720000000000000000000000000000000000000000000000000000000081525080604051602001610df69190612d8e565b60405160208183030381529060405280519060200120600260003373ffffffffffffffffffffffffffffffffffffffff1673ffffffffffffffffffffffffffffffffffffffff168152602001908152602001600020604051602001610e5b9190612e9d565b6040516020818303038152906040528051906020012014610eb1576040517f08c379a0000000000000000000000000000000000000000000000000000000008152600401610ea890612f00565b60405180910390fd5b600080815480929190610ec3906132fd565b91905055506040518060e0016040528060005481526020013373ffffffffffffffffffffffffffffffffffffffff16815260200183815260200160006004811115610f1157610f10612835565b5b81526020016040518060200160405280600081525081526020016040518060200160405280600081525081526020016040518060200160405280600081525081525060016000805481526020019081526020016000206000820151816000015560208201518160010160006101000a81548173ffffffffffffffffffffffffffffffffffffffff021916908373ffffffffffffffffffffffffffffffffffffffff1602179055506040820151816002019081610fcd9190613123565b5060608201518160030160006101000a81548160ff02191690836004811115610ff957610ff8612835565b5b021790555060808201518160040190816110139190613123565b5060a08201518160050190816110299190613123565b5060c082015181600601908161103f9190613123565b509050507f2437fa90b3a3463b16b51f891b6b48eb7b059e6f9af210d3159fa959d3de08db600054336040516110769291906133b1565b60405180910390a15050565b600260205280600052604060002060009150905080546110a190612dd4565b80601f01602080910402602001604051908101604052809291908181526020018280546110cd90612dd4565b801561111a5780601f106110ef5761010080835404028352916020019161111a565b820191906000526020600020905b8154815290600101906020018083116110fd57829003601f168201915b505050505081565b60016020528060005260406000206000915090508060000154908060010160009054906101000a900473ffffffffffffffffffffffffffffffffffffffff169080600201805461117190612dd4565b80601f016020809104026020016040519081016040528092919081815260200182805461119d90612dd4565b80156111ea5780601f106111bf576101008083540402835291602001916111ea565b820191906000526020600020905b8154815290600101906020018083116111cd57829003601f168201915b5050505050908060030160009054906101000a900460ff169080600401805461121290612dd4565b80601f016020809104026020016040519081016040528092919081815260200182805461123e90612dd4565b801561128b5780601f106112605761010080835404028352916020019161128b565b820191906000526020600020905b81548152906001019060200180831161126e57829003601f168201915b5050505050908060050180546112a090612dd4565b80601f01602080910402602001604051908101604052809291908181526020018280546112cc90612dd4565b80156113195780601f106112ee57610100808354040283529160200191611319565b820191906000526020600020905b8154815290600101906020018083116112fc57829003601f168201915b50505050509080600601805461132e90612dd4565b80601f016020809104026020016040519081016040528092919081815260200182805461135a90612dd4565b80156113a75780601f1061137c576101008083540402835291602001916113a7565b820191906000526020600020905b81548152906001019060200180831161138a57829003601f168201915b5050505050905087565b60005481565b6040518060400160405280600581526020017f41646d696e000000000000000000000000000000000000000000000000000000815250806040516020016113fe9190612d8e565b60405160208183030381529060405280519060200120600260003373ffffffffffffffffffffffffffffffffffffffff1673ffffffffffffffffffffffffffffffffffffffff1681526020019081526020016000206040516020016114639190612e9d565b60405160208183030381529060405280519060200120146114b9576040517f08c379a00000000000000000000000000000000000000000000000000000000081526004016114b090612f00565b60405180910390fd5b81600260008573ffffffffffffffffffffffffffffffffffffffff1673ffffffffffffffffffffffffffffffffffffffff16815260200190815260200160002090816115059190613123565b50505050565b611513612442565b6000600160008481526020019081526020016000206040518060e0016040529081600082015481526020016001820160009054906101000a900473ffffffffffffffffffffffffffffffffffffffff1673ffffffffffffffffffffffffffffffffffffffff1673ffffffffffffffffffffffffffffffffffffffff1681526020016002820180546115a390612dd4565b80601f01602080910402602001604051908101604052809291908181526020018280546115cf90612dd4565b801561161c5780601f106115f15761010080835404028352916020019161161c565b820191906000526020600020905b8154815290600101906020018083116115ff57829003601f168201915b505050505081526020016003820160009054906101000a900460ff16600481111561164a57611649612835565b5b600481111561165c5761165b612835565b5b815260200160048201805461167090612dd4565b80601f016020809104026020016040519081016040528092919081815260200182805461169c90612dd4565b80156116e95780601f106116be576101008083540402835291602001916116e9565b820191906000526020600020905b8154815290600101906020018083116116cc57829003601f168201915b5050505050815260200160058201805461170290612dd4565b80601f016020809104026020016040519081016040528092919081815260200182805461172e90612dd4565b801561177b5780601f106117505761010080835404028352916020019161177b565b820191906000526020600020905b81548152906001019060200180831161175e57829003601f168201915b5050505050815260200160068201805461179490612dd4565b80601f01602080910402602001604051908101604052809291908181526020018280546117c090612dd4565b801561180d5780601f106117e25761010080835404028352916020019161180d565b820191906000526020600020905b8154815290600101906020018083116117f057829003601f168201915b5050505050815250509050806020015173ffffffffffffffffffffffffffffffffffffffff163373ffffffffffffffffffffffffffffffffffffffff1614806118de575060405160200161186090613426565b60405160208183030381529060405280519060200120600260003373ffffffffffffffffffffffffffffffffffffffff1673ffffffffffffffffffffffffffffffffffffffff1681526020019081526020016000206040516020016118c59190612e9d565b6040516020818303038152906040528051906020012014155b61191d576040517f08c379a000000000000000000000000000000000000000000000000000000000815260040161191490613487565b60405180910390fd5b80915050919050565b60606040518060400160405280600c81526020017f496e76657374696761746f7200000000000000000000000000000000000000008152508060405160200161196f9190612d8e565b60405160208183030381529060405280519060200120600260003373ffffffffffffffffffffffffffffffffffffffff1673ffffffffffffffffffffffffffffffffffffffff1681526020019081526020016000206040516020016119d49190612e9d565b6040516020818303038152906040528051906020012014611a2a576040517f08c379a0000000000000000000000000000000000000000000000000000000008152600401611a2190612f00565b60405180910390fd5b600080549050600080600190505b828111611ab05760026004811115611a5357611a52612835565b5b6001600083815260200190815260200160002060030160009054906101000a900460ff166004811115611a8957611a88612835565b5b03611a9d578180611a99906132fd565b9250505b8080611aa8906132fd565b915050611a38565b5060008167ffffffffffffffff811115611acd57611acc612544565b5b604051908082528060200260200182016040528015611b0657816020015b611af3612442565b815260200190600190039081611aeb5790505b509050600080600190505b848111611ea85760026004811115611b2c57611b2b612835565b5b6001600083815260200190815260200160002060030160009054906101000a900460ff166004811115611b6257611b61612835565b5b03611e9557600160008281526020019081526020016000206040518060e0016040529081600082015481526020016001820160009054906101000a900473ffffffffffffffffffffffffffffffffffffffff1673ffffffffffffffffffffffffffffffffffffffff1673ffffffffffffffffffffffffffffffffffffffff168152602001600282018054611bf590612dd4565b80601f0160208091040260200160405190810160405280929190818152602001828054611c2190612dd4565b8015611c6e5780601f10611c4357610100808354040283529160200191611c6e565b820191906000526020600020905b815481529060010190602001808311611c5157829003601f168201915b505050505081526020016003820160009054906101000a900460ff166004811115611c9c57611c9b612835565b5b6004811115611cae57611cad612835565b5b8152602001600482018054611cc290612dd4565b80601f0160208091040260200160405190810160405280929190818152602001828054611cee90612dd4565b8015611d3b5780601f10611d1057610100808354040283529160200191611d3b565b820191906000526020600020905b815481529060010190602001808311611d1e57829003601f168201915b50505050508152602001600582018054611d5490612dd4565b80601f0160208091040260200160405190810160405280929190818152602001828054611d8090612dd4565b8015611dcd5780601f10611da257610100808354040283529160200191611dcd565b820191906000526020600020905b815481529060010190602001808311611db057829003601f168201915b50505050508152602001600682018054611de690612dd4565b80601f0160208091040260200160405190810160405280929190818152602001828054611e1290612dd4565b8015611e5f5780601f10611e3457610100808354040283529160200191611e5f565b820191906000526020600020905b815481529060010190602001808311611e4257829003601f168201915b505050505081525050838381518110611e7b57611e7a61329f565b5b60200260200101819052508180611e91906132fd565b9250505b8080611ea0906132fd565b915050611b11565b50819550505050505090565b60606040518060400160405280600581526020017f436f75727400000000000000000000000000000000000000000000000000000081525080604051602001611efd9190612d8e565b60405160208183030381529060405280519060200120600260003373ffffffffffffffffffffffffffffffffffffffff1673ffffffffffffffffffffffffffffffffffffffff168152602001908152602001600020604051602001611f629190612e9d565b6040516020818303038152906040528051906020012014611fb8576040517f08c379a0000000000000000000000000000000000000000000000000000000008152600401611faf90612f00565b60405180910390fd5b600080549050600080600190505b82811161203e5760026004811115611fe157611fe0612835565b5b6001600083815260200190815260200160002060030160009054906101000a900460ff16600481111561201757612016612835565b5b0361202b578180612027906132fd565b9250505b8080612036906132fd565b915050611fc6565b5060008167ffffffffffffffff81111561205b5761205a612544565b5b60405190808252806020026020018201604052801561209457816020015b612081612442565b8152602001906001900390816120795790505b509050600080600190505b84811161243657600260048111156120ba576120b9612835565b5b6001600083815260200190815260200160002060030160009054906101000a900460ff1660048111156120f0576120ef612835565b5b0361242357600160008281526020019081526020016000206040518060e0016040529081600082015481526020016001820160009054906101000a900473ffffffffffffffffffffffffffffffffffffffff1673ffffffffffffffffffffffffffffffffffffffff1673ffffffffffffffffffffffffffffffffffffffff16815260200160028201805461218390612dd4565b80601f01602080910402602001604051908101604052809291908181526020018280546121af90612dd4565b80156121fc5780601f106121d1576101008083540402835291602001916121fc565b820191906000526020600020905b8154815290600101906020018083116121df57829003601f168201915b505050505081526020016003820160009054906101000a900460ff16600481111561222a57612229612835565b5b600481111561223c5761223b612835565b5b815260200160048201805461225090612dd4565b80601f016020809104026020016040519081016040528092919081815260200182805461227c90612dd4565b80156122c95780601f1061229e576101008083540402835291602001916122c9565b820191906000526020600020905b8154815290600101906020018083116122ac57829003601f168201915b505050505081526020016005820180546122e290612dd4565b80601f016020809104026020016040519081016040528092919081815260200182805461230e90612dd4565b801561235b5780601f106123305761010080835404028352916020019161235b565b820191906000526020600020905b81548152906001019060200180831161233e57829003601f168201915b5050505050815260200160068201805461237490612dd4565b80601f01602080910402602001604051908101604052809291908181526020018280546123a090612dd4565b80156123ed5780601f106123c2576101008083540402835291602001916123ed565b820191906000526020600020905b8154815290600101906020018083116123d057829003601f168201915b5050505050815250508383815181106124095761240861329f565b5b6020026020010181905250818061241f906132fd565b9250505b808061242e906132fd565b91505061209f565b50819550505050505090565b6040518060e0016040528060008152602001600073ffffffffffffffffffffffffffffffffffffffff168152602001606081526020016000600481111561248c5761248b612835565b5b81526020016060815260200160608152602001606081525090565b6000604051905090565b600080fd5b600080fd5b6000819050919050565b6124ce816124bb565b81146124d957600080fd5b50565b6000813590506124eb816124c5565b92915050565b60008115159050919050565b612506816124f1565b811461251157600080fd5b50565b600081359050612523816124fd565b92915050565b600080fd5b600080fd5b6000601f19601f8301169050919050565b7f4e487b7100000000000000000000000000000000000000000000000000000000600052604160045260246000fd5b61257c82612533565b810181811067ffffffffffffffff8211171561259b5761259a612544565b5b80604052505050565b60006125ae6124a7565b90506125ba8282612573565b919050565b600067ffffffffffffffff8211156125da576125d9612544565b5b6125e382612533565b9050602081019050919050565b82818337600083830152505050565b600061261261260d846125bf565b6125a4565b90508281526020810184848401111561262e5761262d61252e565b5b6126398482856125f0565b509392505050565b600082601f83011261265657612655612529565b5b81356126668482602086016125ff565b91505092915050565b600080600060608486031215612688576126876124b1565b5b6000612696868287016124dc565b93505060206126a786828701612514565b925050604084013567ffffffffffffffff8111156126c8576126c76124b6565b5b6126d486828701612641565b9150509250925092565b600080604083850312156126f5576126f46124b1565b5b6000612703858286016124dc565b925050602083013567ffffffffffffffff811115612724576127236124b6565b5b61273085828601612641565b9150509250929050565b600081519050919050565b600082825260208201905092915050565b6000819050602082019050919050565b61276f816124bb565b82525050565b600073ffffffffffffffffffffffffffffffffffffffff82169050919050565b60006127a082612775565b9050919050565b6127b081612795565b82525050565b600081519050919050565b600082825260208201905092915050565b60005b838110156127f05780820151818401526020810190506127d5565b60008484015250505050565b6000612807826127b6565b61281181856127c1565b93506128218185602086016127d2565b61282a81612533565b840191505092915050565b7f4e487b7100000000000000000000000000000000000000000000000000000000600052602160045260246000fd5b6005811061287557612874612835565b5b50565b600081905061288682612864565b919050565b600061289682612878565b9050919050565b6128a68161288b565b82525050565b600060e0830160008301516128c46000860182612766565b5060208301516128d760208601826127a7565b50604083015184820360408601526128ef82826127fc565b9150506060830151612904606086018261289d565b506080830151848203608086015261291c82826127fc565b91505060a083015184820360a086015261293682826127fc565b91505060c083015184820360c086015261295082826127fc565b9150508091505092915050565b600061296983836128ac565b905092915050565b6000602082019050919050565b60006129898261273a565b6129938185612745565b9350836020820285016129a585612756565b8060005b858110156129e157848403895281516129c2858261295d565b94506129cd83612971565b925060208a019950506001810190506129a9565b50829750879550505050505092915050565b60006020820190508181036000830152612a0d818461297e565b905092915050565b600060208284031215612a2b57612a2a6124b1565b5b600082013567ffffffffffffffff811115612a4957612a486124b6565b5b612a5584828501612641565b91505092915050565b612a6781612795565b8114612a7257600080fd5b50565b600081359050612a8481612a5e565b92915050565b600060208284031215612aa057612a9f6124b1565b5b6000612aae84828501612a75565b91505092915050565b600082825260208201905092915050565b6000612ad3826127b6565b612add8185612ab7565b9350612aed8185602086016127d2565b612af681612533565b840191505092915050565b60006020820190508181036000830152612b1b8184612ac8565b905092915050565b600060208284031215612b3957612b386124b1565b5b6000612b47848285016124dc565b91505092915050565b612b59816124bb565b82525050565b612b6881612795565b82525050565b612b778161288b565b82525050565b600060e082019050612b92600083018a612b50565b612b9f6020830189612b5f565b8181036040830152612bb18188612ac8565b9050612bc06060830187612b6e565b8181036080830152612bd28186612ac8565b905081810360a0830152612be68185612ac8565b905081810360c0830152612bfa8184612ac8565b905098975050505050505050565b6000602082019050612c1d6000830184612b50565b92915050565b60008060408385031215612c3a57612c396124b1565b5b6000612c4885828601612a75565b925050602083013567ffffffffffffffff811115612c6957612c686124b6565b5b612c7585828601612641565b9150509250929050565b600060e083016000830151612c976000860182612766565b506020830151612caa60208601826127a7565b5060408301518482036040860152612cc282826127fc565b9150506060830151612cd7606086018261289d565b5060808301518482036080860152612cef82826127fc565b91505060a083015184820360a0860152612d0982826127fc565b91505060c083015184820360c0860152612d2382826127fc565b9150508091505092915050565b60006020820190508181036000830152612d4a8184612c7f565b905092915050565b600081905092915050565b6000612d68826127b6565b612d728185612d52565b9350612d828185602086016127d2565b80840191505092915050565b6000612d9a8284612d5d565b915081905092915050565b7f4e487b7100000000000000000000000000000000000000000000000000000000600052602260045260246000fd5b60006002820490506001821680612dec57607f821691505b602082108103612dff57612dfe612da5565b5b50919050565b60008190508160005260206000209050919050565b60008154612e2781612dd4565b612e318186612d52565b94506001821660008114612e4c5760018114612e6157612e94565b60ff1983168652811515820286019350612e94565b612e6a85612e05565b60005b83811015612e8c57815481890152600182019150602081019050612e6d565b838801955050505b50505092915050565b6000612ea98284612e1a565b915081905092915050565b7f4163636573732064656e6965643a20496e636f727265637420726f6c65000000600082015250565b6000612eea601d83612ab7565b9150612ef582612eb4565b602082019050919050565b60006020820190508181036000830152612f1981612edd565b9050919050565b7f464952206e6f7420696e2050656e64696e672073746174650000000000000000600082015250565b6000612f56601883612ab7565b9150612f6182612f20565b602082019050919050565b60006020820190508181036000830152612f8581612f49565b9050919050565b60006020601f8301049050919050565b600082821b905092915050565b600060088302612fd97fffffffffffffffffffffffffffffffffffffffffffffffffffffffffffffffff82612f9c565b612fe38683612f9c565b95508019841693508086168417925050509392505050565b6000819050919050565b600061302061301b613016846124bb565b612ffb565b6124bb565b9050919050565b6000819050919050565b61303a83613005565b61304e61304682613027565b848454612fa9565b825550505050565b600090565b613063613056565b61306e818484613031565b505050565b5b818110156130925761308760008261305b565b600181019050613074565b5050565b601f8211156130d7576130a881612e05565b6130b184612f8c565b810160208510156130c0578190505b6130d46130cc85612f8c565b830182613073565b50505b505050565b600082821c905092915050565b60006130fa600019846008026130dc565b1980831691505092915050565b600061311383836130e9565b9150826002028217905092915050565b61312c826127b6565b67ffffffffffffffff81111561314557613144612544565b5b61314f8254612dd4565b61315a828285613096565b600060209050601f83116001811461318d576000841561317b578287015190505b6131858582613107565b8655506131ed565b601f19841661319b86612e05565b60005b828110156131c35784890151825560018201915060208501945060208101905061319e565b868310156131e057848901516131dc601f8916826130e9565b8355505b6001600288020188555050505b505050505050565b600060608201905061320a6000830186612b50565b6132176020830185612b6e565b81810360408301526132298184612ac8565b9050949350505050565b7f464952206e6f7420696e20496e76657374696761746564207374617465000000600082015250565b6000613269601d83612ab7565b915061327482613233565b602082019050919050565b600060208201905081810360008301526132988161325c565b9050919050565b7f4e487b7100000000000000000000000000000000000000000000000000000000600052603260045260246000fd5b7f4e487b7100000000000000000000000000000000000000000000000000000000600052601160045260246000fd5b6000613308826124bb565b91507fffffffffffffffffffffffffffffffffffffffffffffffffffffffffffffffff820361333a576133396132ce565b5b600182019050919050565b7f464952206e6f7420696e20417070726f76656420737461746500000000000000600082015250565b600061337b601983612ab7565b915061338682613345565b602082019050919050565b600060208201905081810360008301526133aa8161336e565b9050919050565b60006040820190506133c66000830185612b50565b6133d36020830184612b5f565b9392505050565b7f5573657200000000000000000000000000000000000000000000000000000000600082015250565b6000613410600483612d52565b915061341b826133da565b600482019050919050565b600061343182613403565b9150819050919050565b7f4163636573732064656e6965643a204e6f7420796f7572204649520000000000600082015250565b6000613471601b83612ab7565b915061347c8261343b565b602082019050919050565b600060208201905081810360008301526134a081613464565b905091905056fea26469706673582212201b43cadef5b9cbcecf29486dfed6ce2dec991d8d0f8f9278cf9a7429b07ed6b264736f6c63430008120033",
  "immutableReferences": {},
  "source": "// SPDX-License-Identifier: MIT\r\npragma solidity ^0.8.18;\r\n\r\ncontract FIRManagement {\r\n    enum FIRStatus { Pending, Rejected, Approved, Investigated, Closed }\r\n\r\n    struct FIR {\r\n        uint256 id;\r\n        address user;\r\n        string details;\r\n        FIRStatus status;\r\n        string rejectionMessage;\r\n        string investigationDetails;\r\n        string courtMessage;\r\n    }\r\n\r\n    uint256 public firCounter;\r\n    mapping(uint256 => FIR) public firs;\r\n    mapping(address => string) public roles;\r\n\r\n    modifier onlyRole(string memory role) {\r\n        require(\r\n            keccak256(abi.encodePacked(roles[msg.sender])) == keccak256(abi.encodePacked(role)),\r\n            \"Access denied: Incorrect role\"\r\n        );\r\n        _;\r\n    }\r\n\r\n    // Events for tracking FIR updates\r\n    event FIRCreated(uint256 firId, address user);\r\n    event FIRStatusUpdated(uint256 firId, FIRStatus status, string message);\r\n\r\n    constructor() {\r\n        // Assign roles to predefined addresses for simplicity\r\n        roles[msg.sender] = \"Admin\"; // Contract deployer is admin\r\n    }\r\n\r\n    // Assign role to an address (only Admin)\r\n    function assignRole(address _address, string memory _role) public onlyRole(\"Admin\") {\r\n        roles[_address] = _role;\r\n    }\r\n\r\n    // User creates a new FIR\r\n    function createFIR(string memory _details) public onlyRole(\"User\") {\r\n        firCounter++;\r\n        firs[firCounter] = FIR(\r\n            firCounter,\r\n            msg.sender,\r\n            _details,\r\n            FIRStatus.Pending,\r\n            \"\",\r\n            \"\",\r\n            \"\"\r\n        );\r\n        emit FIRCreated(firCounter, msg.sender);\r\n    }\r\n\r\n    // Police accepts or rejects FIR\r\n    function updateFIRStatus(uint256 _firId, bool _isApproved, string memory _message) public onlyRole(\"Police\") {\r\n        FIR storage fir = firs[_firId];\r\n        require(fir.status == FIRStatus.Pending, \"FIR not in Pending state\");\r\n\r\n        if (_isApproved) {\r\n            fir.status = FIRStatus.Approved;\r\n        } else {\r\n            fir.status = FIRStatus.Rejected;\r\n            fir.rejectionMessage = _message;\r\n        }\r\n        emit FIRStatusUpdated(_firId, fir.status, _message);\r\n    }\r\n\r\n    // Investigator marks FIR as investigated\r\n    function markAsInvestigated(uint256 _firId, string memory _details) public onlyRole(\"Investigator\") {\r\n        FIR storage fir = firs[_firId];\r\n        require(fir.status == FIRStatus.Approved, \"FIR not in Approved state\");\r\n\r\n        fir.status = FIRStatus.Investigated;\r\n        fir.investigationDetails = _details;\r\n        emit FIRStatusUpdated(_firId, fir.status, _details);\r\n    }\r\n\r\n    // Court closes the FIR\r\n    function closeFIR(uint256 _firId, string memory _message) public onlyRole(\"Court\") {\r\n        FIR storage fir = firs[_firId];\r\n        require(fir.status == FIRStatus.Investigated, \"FIR not in Investigated state\");\r\n\r\n        fir.status = FIRStatus.Closed;\r\n        fir.courtMessage = _message;\r\n        emit FIRStatusUpdated(_firId, fir.status, _message);\r\n    }\r\n\r\n    // User views their FIR\r\n    function viewFIR(uint256 _firId) public view returns (FIR memory) {\r\n        FIR memory fir = firs[_firId];\r\n        require(\r\n            msg.sender == fir.user || keccak256(abi.encodePacked(roles[msg.sender])) != keccak256(abi.encodePacked(\"User\")),\r\n            \"Access denied: Not your FIR\"\r\n        );\r\n        return fir;\r\n    }\r\n\r\n    // View all FIRs (For Police)\r\n    function viewAllFIRs() public view onlyRole(\"Police\") returns (FIR[] memory) {\r\n        uint256 totalFIRs = firCounter;\r\n        FIR[] memory result = new FIR[](totalFIRs);\r\n        uint256 counter = 0;\r\n\r\n        for (uint256 i = 1; i <= totalFIRs; i++) {\r\n            result[counter] = firs[i];\r\n            counter++;\r\n        }\r\n        return result;\r\n    }\r\n\r\n    // View all FIRs for Investigator\r\n    function viewAllFIRInvestigator() public view onlyRole(\"Investigator\") returns (FIR[] memory) {\r\n        uint256 totalFIRs = firCounter;\r\n        uint256 count = 0;\r\n\r\n        // Count the FIRs in Approved state\r\n        for (uint256 i = 1; i <= totalFIRs; i++) {\r\n            if (firs[i].status == FIRStatus.Approved) {\r\n                count++;\r\n            }\r\n        }\r\n\r\n        // Create an array for Approved FIRs\r\n        FIR[] memory result = new FIR[](count);\r\n        uint256 counter = 0;\r\n\r\n        for (uint256 i = 1; i <= totalFIRs; i++) {\r\n            if (firs[i].status == FIRStatus.Approved) {\r\n                result[counter] = firs[i];\r\n                counter++;\r\n            }\r\n        }\r\n        return result;\r\n    }\r\n    function viewAllFIRCourt() public view onlyRole(\"Court\") returns (FIR[] memory) {\r\n        uint256 totalFIRs = firCounter;\r\n        uint256 count = 0;\r\n\r\n        // Count the FIRs in Approved state\r\n        for (uint256 i = 1; i <= totalFIRs; i++) {\r\n            if (firs[i].status == FIRStatus.Approved) {\r\n                count++;\r\n            }\r\n        }\r\n\r\n        // Create an array for Approved FIRs\r\n        FIR[] memory result = new FIR[](count);\r\n        uint256 counter = 0;\r\n\r\n        for (uint256 i = 1; i <= totalFIRs; i++) {\r\n            if (firs[i].status == FIRStatus.Approved) {\r\n                result[counter] = firs[i];\r\n                counter++;\r\n            }\r\n        }\r\n        return result;\r\n    }\r\n}\r\n",
  "sourcePath": "E:\\testing\\contracts\\Simple.sol",
  "compiler": {
    "name": "solc",
    "version": "0.8.18+commit.87f61d96.Emscripten.clang"
  },
  "schemaVersion": "3.4.16",
  "updatedAt": "2024-12-18T18:10:20.544Z",
  "networkType": "ethereum",
  "devdoc": {
    "kind": "dev",
    "methods": {},
    "version": 1
  },
  "userdoc": {
    "kind": "user",
    "methods": {},
    "version": 1
  }
}